:020000040800F2
:100000003007002029020008A71A00089B170008E3
:10001000851800081F040008A31C00080000000049
:10002000000000000000000000000000AB1A000803
:100030002D04000800000000A91A0008AD1A0008ED
:10004000430200084302000843020008430200087C
:10005000430200084302000843020008430200086C
:10006000430200084302000843020008430200085C
:10007000430200084302000843020008430200084C
:10008000430200084302000843020008430200083C
:10009000210400084302000843020008430200084C
:1000A00043020008551B00084302000843020008F1
:1000B000430200084302000843020008430200080C
:1000C00043020008430200084302000843020008FC
:1000D00043020008430200084302000843020008EC
:1000E00043020008430200084302000843020008DC
:1000F00043020008430200084302000843020008CC
:1001000043020008430200084302000843020008BB
:1001100043020008430200084302000843020008AB
:10012000430200084302000843020008430200089B
:10013000430200084302000843020008430200088B
:10014000430200084302000843020008430200087B
:10015000430200084302000843020008430200086B
:10016000430200084302000843020008430200085B
:100170004302000843020008430200080000000098
:10018000430200084302000800F002F800F03CF8C7
:100190000AA090E8000C82448344AAF10107DA45E2
:1001A00001D100F031F8AFF2090EBAE80F0013F0F8
:1001B000010F18BFFB1A43F001031847081C000089
:1001C000281C0000103A24BF78C878C1FAD852071A
:1001D00024BF30C830C144BF04680C6070470000C1
:1001E0000023002400250026103A28BF78C1FBD840
:1001F000520728BF30C148BF0B6070471FB501F0E0
:10020000D3FD1FBD10B510BD00F0CFF81146FFF7AC
:10021000F5FF01F099FD00F0EDF803B4FFF7F2FFF0
:1002200003BC00F0F5F80000094880470948004782
:10023000FEE7FEE7FEE7FEE7FEE7FEE7FEE7FEE796
:10024000FEE7FEE704480549054A064B70470000F3
:10025000451B0008890100083001002030070020FC
:10026000300300203003002053EA020C00F06980C4
:100270002DE9F04B4FF00006002B1FBFB3FA83F5BA
:1002800003FA05F424FA05F65E4012BF1643B2FAEB
:1002900082F502FA05F4C5F120051EBF22FA05FC1D
:1002A00044EA0C04203556EA044C4FEA144418BFC3
:1002B000641C4FF000084FF00009904271EB030CF2
:1002C00039D3002919BFB1FA81F701FA07F6B0FA5C
:1002D00080F700FA07F6C7F120071EBF20FA07FCD7
:1002E00046EA0C062037B6FBF4FCA7EB0507103FE7
:1002F00007F01F0BCBF120060CFA0BFB2CFA06F6CD
:1003000044BFB3460026202FA4BF5E464FF0000B2B
:100310005BEA060C08BF4FF0010B19EB0B09ABFBB6
:10032000027C48EB0608C01B06FB02CC0BFB03CC8F
:1003300071EB0C01C1E70B46024641464846BDE859
:10034000F08B13B54FF000004FF00001AFF30080C9
:10035000BDE81C4070474FF0000200B513469446BC
:100360009646203922BFA0E80C50A0E80C50B1F10D
:100370002001BFF4F7AF090728BFA0E80C5048BF21
:100380000CC05DF804EB890028BF40F8042B08BFBF
:10039000704748BF20F8022B11F0804F18BF00F8BB
:1003A000012B7047704770477047754600F02CF876
:1003B000AE4605006946534620F00700854618B052
:1003C00020B5FFF73FFFBDE820404FF000064FF09B
:1003D00000074FF000084FF0000B21F00701AC467A
:1003E000ACE8C009ACE8C009ACE8C009ACE8C00999
:1003F0008D46704710B50446AFF300802046BDE837
:100400001040FFF70ABF000000487047D0000020EE
:1004100001491820ABBEFEE7260002007047FEE748
:10042000014800F078B9000060000020704772B603
:10043000FEE790F82020012A07D0022A05D0416A61
:1004400041F48021416201207047006842690A43FB
:10045000426100207047F0B590F820500468A4680D
:10046000012D05D0022D03D0416A41F480214DE0D9
:1004700014F0406F01D1E50045D5C4F301640125B6
:10048000A5401D608D684FF4C0739DB1CE683543A3
:100490004E6845EAC605066803EB0417F5514FF4AC
:1004A000C275076805EB04150E697E51097D0129A7
:1004B00005D009E00E88CD6845EA4655EBE70168AE
:1004C0004E5946F480764E511179D2F805504FF4CA
:1004D000C67641EA0521056806EB0416A951117894
:1004E000D2F801204FF4C47541EA0221026805EBFD
:1004F00004155151006803EB0411425842F0010207
:1005000042500020F0BD416A41F4001141620120D7
:10051000F0BD000010B590F82020012A07D0022A73
:1005200005D0416A41F480214162012010BD3B4861
:10053000D0F8002242F00102C0F80022D0F80022D8
:1005400022F47C52C0F80022D0F800224B6A42EA22
:100550000322C0F800220A7D02F01F0301229A4004
:10056000D0F81C329343C0F81C32CB69B3B9D0F831
:100570000C329343C0F80C328C894B6864F31F43F0
:100580004C6900EBC404C4F840320C890B6864F376
:100590001F434C6900EBC404C4F84432CB69012BFF
:1005A00016D1D0F80C321343C0F80C320C884B68CB
:1005B00064F31F434C6900EBC404C4F840320C8957
:1005C000CB6864F31F434C6900EBC404C4F84432A5
:1005D0008B69002BD0F804320ED01343C0F80432DC
:1005E0000B69002BD0F8143208D01343C0F8143232
:1005F000096A012904D008E09343EFE79343F5E744
:10060000D0F81C121143C0F81C12D0F8001221F0CF
:100610000101C0F80012002010BD0000006400407D
:10062000704770B590F82040012C05D0022C03D003
:10063000416A41F4802128E0046809B32469A407D1
:1006400020D04FF4D874056804EB01142D5915F02F
:100650000405956005682D591AD0ED0855600568A8
:100660002C5904F00204D4604FF4DA74056804EBEA
:1006700001142E5906F00F06082E0CD308250DE0A4
:10068000E468DCE7416A41F400114162012070BD79
:100690006D0D1560E3E72D5905F00F05156105682F
:1006A0002D59C5F30725956105682C59240C546113
:1006B0004FF4DC72046802EB0112A4581C70046849
:1006C000A458240A5C700468A458240C9C70046824
:1006D000A258120EDA704FF4DE72046802EB0112B7
:1006E000A4581C710468A458240A5C710468A458B6
:1006F000240C9C710468A258120EDA71006829B1AA
:10070000016941F020010161002070BDC16841F024
:100710002001C160F8E72DE9F05F0546006800247C
:100720004669D0F804908768D0F80CB0D0F810A0D3
:10073000D0F81880F10748D0F90714D00121816062
:10074000B80703D5284600F0F4F90CE0780702D585
:100750004FF4006407E0380702D54FF4805402E0FC
:10076000284600F0E5F9F80516D529684FF48070A1
:100770008860B80503D5284600F0DDF90CE078055F
:1007800002D544F4005407E0380502D544F480440F
:1007900002E0284600F0CEF9F80316D529684FF498
:1007A00080308860B80303D5284600F0C6F90CE015
:1007B000780302D544F4004407E0380302D544F43A
:1007C000803402E0284600F0B7F9300707D55FEA29
:1007D000CB6004D52968102044F40074C860700709
:1007E0004FF0080707D55FEA0B7004D52868C7608B
:1007F000284600F057F9B00706D52868C06880077A
:1008000002D0284600F050F9700607D55FEACA60AA
:1008100004D52968102044F480640861B00607D527
:100820005FEA0A7004D528680761284600F050F98D
:10083000F00606D528680069800702D0284600F037
:1008400048F9B00308D55FEAC96005D529681020CA
:100850004860284600F03EF9F00307D55FEA0970CA
:1008600004D528684760284600F068F9300446D56A
:100870005FEA497040D5F00504D55FEAC87001D041
:1008800044F00104B00504D55FEA887001D544F056
:100890000204700504D55FEA487001D544F00404F1
:1008A000300529D518F0700F26D008F070004028C8
:1008B00015D006DC102809D020280AD0302816D1FF
:1008C0000AE050280ED0602811D10EE044F0080450
:1008D0000DE044F010040AE044F0200407E044F086
:1008E000400404E044F0800401E044F4807428688B
:1008F000816921F070018161296804204860002C21
:1009000005D0686A204368622846FFF789FEBDE883
:10091000F09F70B5040003D094F8200010B104E0FB
:10092000012070BD204600F081F82068016841F088
:100930000101016000F0FCF90546052604E000F025
:10094000F7F9401B0A2811D820684068C007F6D084
:100950002068016821F00201016000F0E9F9054614
:100960000BE000F0E5F9401B0A2806D9606A40F464
:100970000030606284F82060D2E720684068800719
:10098000EFD4207E0128206801683DD021F080014D
:100990000160607E01282068016838D021F04001A4
:1009A0000160A07E01282068016833D021F0200179
:1009B0000160E07E0128206801682ED041F010011E
:1009C0000160207F01282068016829D021F00801FA
:1009D0000160607F01282068016824D021F00401B3
:1009E0000160D4E902010843D4E904121143084329
:1009F0006168491E08432168C861002060620120C7
:100A000084F82000002070BD41F08001C0E741F073
:100A10004001C5E741F02001CAE721F01001CFE70E
:100A200041F00801D4E741F00401D9E710B586B0E0
:100A3000044614216846FFF78EFC17492068884257
:100A400027D116480021026842F000720260006857
:100A500000F00070059011481038026842F008025A
:100A600002600068022200F0080005900320CDE932
:100A70000210CDE90002092004906946084800F000
:100A80005FF800221146142000F0C0F9142000F095
:100A9000AFF906B010BD00000064004040380240CD
:100AA000000C02407047000000B587B0064B6A4654
:100AB0000021FFF7B6FD0098012803D10249034841
:100AC00000F0F0FE07B000BD1C0000203400002044
:100AD000704770477047000070B5044690F82000DA
:100AE000012804D0606A40F40020606218E002200F
:100AF00084F820002068016821F00101016000F005
:100B000017F905460EE000BF00F012F9401B0A2855
:100B100008D9606A40F400306062052084F8200043
:100B2000012070BD20684068C007EDD1606270BDD3
:100B300070477047704770477047704770470000B4
:100B40002DE9F84FDFF8BCA10022012503264FF064
:100B50000F090AF1040BAAF1040E00BF0B6805FA95
:100B600002F42340A34270D10F7907F00307012F4D
:100B700001D0022F16D187684FEA420806FA08FC16
:100B800027EA0C07D1F80CC00CFA08FC4CEA070C59
:100B9000C0F808C04768A7430C79C4F30014944018
:100BA0003C4344600C79E443A4070AD0C4684FEA8C
:100BB000420C06FA0CF7BC438F6807FA0CF7274380
:100BC000C7600C7904F00304022C12D1D40800EBA6
:100BD000840CDCF820405707FF0E09FA07F824EAD6
:100BE0000804D1F8108008FA07F848EA0408CCF89D
:100BF000208004684FEA420C06FA0CF7BC430F79D8
:100C000007F0030707FA0CF7274307604C6814F452
:100C1000403F70D03C4C276847F4804727602468E9
:100C200022F0030704F480440094384C07EB040CD2
:100C3000DCF8084897074FEA177809FA08F7BC4329
:100C4000334FB84202D1002724E054E0314FB8427C
:100C500001D101271EE0304FB84201D1022719E02F
:100C60002E4FB84201D1032714E02D4FB84201D1D5
:100C700004270FE02B4FB84201D105270AE02A4F85
:100C8000B84201D1062705E0284FB84201D1072715
:100C900000E0082707FA08F72743CCF80878DAF8C5
:100CA00000405746D1F804C09C435FEACC2C00D5E5
:100CB0001C433C60DBF800405F46D1F804C09C4315
:100CC0005FEA8C2C00D51C433C60DEF80040774680
:100CD000D1F804C09C435FEA8C3C00D51C433C60C7
:100CE000084F083F3C68D1F804C09C435FEACC3C05
:100CF00000D51C433C60521C102AFFF42FAFBDE806
:100D0000F88F0000083C01404438024000300140A8
:100D1000000002400004024000080240000C0240B3
:100D2000001002400014024000180240001C024063
:100D30000148806870470000240000200248816854
:100D40000278114481607047240000200B4810B5E0
:100D5000016841F400710160016841F48061016043
:100D6000016841F480710160032000F06FF80F20EA
:100D700000F006F800F024F8002010BD003C02400E
:100D800070B50D4D04464FF47A712878B1FBF0F040
:100D90000A490968B1FBF0F000F0ECFA48B9102CF0
:100DA00007D200222146501E00F030F800206C606F
:100DB00070BD012070BD0000240000203000002024
:100DC0000A4808B5016841F480410160006800F4F8
:100DD000804000900548001F016841F0805101608B
:100DE000006800F08050009008BD000044380240C8
:100DF000002809DB00F01F0201219140400980001A
:100E000000F1E020C0F8001170470000F0B40E4B74
:100E10001B680C46C3F30223C3F10705042D00D958
:100E20000425191D072901D2002300E0DB1E01263D
:100E300006FA05F1491E214099409E40761E164053
:100E40003143F0BC00F02EBF0CED00E0064900F08D
:100E5000070208684FF6FF03184040EA0220034AE1
:100E600010430860704700000CED00E00000FA0538
:100E70002DE9F0470E46050065D0DFF81481D8F85B
:100E80000000F7B200F00700B04207D288F8007007
:100E9000D8F8000000F00700B04254D128683D4C5B
:100EA000810712D5400703D5206840F4E050206048
:100EB0002878000703D5206840F46040206020684F
:100EC000A96820F0F000084320602878C0072DD0E2
:100ED000304968680839012812D0022813D0032845
:100EE00011D00968890700292DDA216821F0030152
:100EF00001432160FFF71CFF814641F2883A0EE072
:100F000009688903EFE709688901ECE7FFF710FF3B
:100F1000A0EB0901514502D90320BDE8F087206804
:100F2000696800F00C00B0EB810FEFD1D8F8001029
:100F3000404601F00701B14207D90770006800F090
:100F40000700B04201D00120E7E72878400705D527
:100F50002068E96820F4E050084320602878000702
:100F600006D52068296920F4604040EAC10020606D
:100F700000F018F82168084AC1F30311515CC84019
:100F80000649086006480068FFF7FAFE0020C4E73B
:100F9000003C024008380240B21D0008300000202A
:100FA00028000020154810B5006810F00C02144805
:100FB00013D01449042A0FD0082A0ED10F4C241F35
:100FC0002268236802F03F025B0207D52068C0F365
:100FD0008810A0FB010106E0084610BD2168C1F39E
:100FE0008811A1FB00010023FFF73EF92168C1F33E
:100FF0000141491C4900B0FBF1F010BD0838024026
:101000000024F400001BB7002DE9F84F04006ED057
:101010002078DFF84C93C007A9F104054AD009F104
:1010200004000168C1F38101012908D00068C0F300
:10103000810002280AD1D9F80000400206D52868AC
:10104000800337D560680028E1D033E06068B0F5F0
:10105000803F10D0B0F5A02F286810D020F4803049
:101060002860286820F4802028606068A8B1FFF715
:101070005FFE06460DE0286840F48030F4E740F457
:1010800080202860F7E700BFFFF752FE801B64282E
:1010900073D828688003F7D50CE0FFF749FE0646B1
:1010A00005E000BFFFF744FE801B6428F0D82868E5
:1010B0008003F7D42078DFF8AC8280074FF0000A75
:1010C0003ED5A748001D016811F00C0F08D000683C
:1010D000C0F3810002280BD1D9F80000400207D4E8
:1010E0002868800716D5E068012800D112E033E1B6
:1010F000E068B8B10120C8F80000FFF719FE064605
:1011000005E000BFFFF714FE801B0228C0D8286846
:101110008007F7D52868216920F0F80040EAC1006F
:1011200028600DE0C8F800A0FFF702FE064604E0C4
:10113000FFF7FEFD801B02281FD828688007F7D420
:101140002078000722D5864F87486169703771B1D2
:1011500001210160FFF7ECFD064604E0FFF7E8FD22
:10116000801B022809D838688007F7D50EE0C0F840
:1011700000A0FFF7DDFD064605E082E0FFF7D8FDA1
:10118000801B02287DD838688007F7D42078400774
:1011900068D5DFF8CCB100270BF13C0BDBF8000081
:1011A000C0000BD4DBF8001041F08051CBF80010E8
:1011B000DBF80000012700F0805000906B4E306893
:1011C000C00510D4306840F480703060FFF7B0FD87
:1011D000009005E0FFF7ACFD0099401A022850D8B6
:1011E0003068C005F6D55E4EA0686C3601280FD079
:1011F0000528306810D020F001003060306820F001
:1012000004003060A068B8B1FFF792FD00900FE0D5
:10121000306840F00100F4E740F004003060F7E788
:10122000FFF786FD0099411A41F28830814266D865
:1012300030688007F4D50EE0FFF77AFD009007E0F4
:10124000FFF776FD0099411A41F28830814256D865
:1012500030688007F4D42FB1DBF8001021F0805102
:10126000CBF80010A069C8B33D49091D0968C1F356
:10127000810102294AD00228504607D0C8F86000F0
:1012800000E03CE0FFF754FD04463BE04746C8F869
:101290006000FFF74DFD064605E000BFFFF748FD83
:1012A000801B02282BD828688001F7D4D4E90701D5
:1012B0000843A16A2E4A490802EB0141626A41EAE9
:1012C0008211084394F82C1040EA0161C9F800101B
:1012D00001203866FFF72CFD044606E03EE000BF23
:1012E000FFF726FD001B022809D828688001F7D5E2
:1012F00034E000BFFFF71CFD001B022802D90320C9
:10130000BDE8F88F28688001F4D427E00128F7D0E1
:10131000D9F80000E26900F4800191421CD1226AF0
:1013200000F03F01914217D147F6C071626A014057
:10133000B1EB821F10D1A26A4FF0FF3300F44031AD
:1013400003EB5202B1EB024F06D194F82C1000F0DF
:101350007060B0EB016F01D00120D1E70020CFE732
:101360000438024000004742800E474200700040AF
:101370000000FFFF10B5401EB0F1807F01D30120B7
:1013800010BD4FF0E02460610F21601700F08AFC6F
:101390000020A06107202061002010BD7047704729
:1013A00070B590F83C20012A32D0012480F83C40EE
:1013B000022280F83D2003685A689D6822F070067A
:1013C0000A6832435A60134B02689A4214D0B2F151
:1013D000804F11D0104B9A420ED0104B9A420BD036
:1013E0000F4B9A4208D00F4B9A4205D00E4B9A42AF
:1013F00002D00E4B9A4204D1496825F0800319436C
:10140000916080F83D40002180F83C10084670BD96
:10141000022070BD000001400004004000080040B0
:10142000000C004000040140004001400018004052
:1014300010B5040003D094F83D0010B107E001207E
:1014400010BD002084F83C00204600F01FF8022068
:1014500084F83D00211D206800F082FB012084F803
:10146000460084F83E0084F83F0084F8400084F889
:10147000410084F8420084F8430084F8440084F872
:10148000450084F83D00002010BD000008B500684C
:101490000B49884212D10B48016841F001010160FB
:1014A0000068002200F00100009011461920FFF7AB
:1014B000ADFCBDE808401920FFF79ABC08BD00004C
:1014C000000001404438024090F83D10012901D04D
:1014D00001207047022180F83D100168CA6842F07F
:1014E0000102CA6000681149884214D0B0F1804FEF
:1014F00011D00F4988420ED00E4988420BD00E49B8
:10150000884208D00D49884205D00D49884202D052
:101510000C49884204D1816801F00701062903D0F3
:10152000016841F0010101600020704700000140A6
:101530000004004000080040000C0040000401408E
:10154000004001400018004070B5044690F83C008F
:101550000025012817D0012684F83C60022084F879
:101560003D002068826822F0770222F47F42826088
:101570000868502838D00DDC20284FD005DC90B307
:10158000102811D14AE0022070BD302846D04028F2
:101590000AD13BE060282FD070280DD0B0F5805FD5
:1015A00003D0B0F5005F12D0012584F83D60002023
:1015B00084F83C00284670BDCB68D1E90121206841
:1015C00000F03AFB2068816841F0770109E0CB68C0
:1015D000D1E90121206800F02FFB2068816841F4E7
:1015E00080418160E1E719E0CA684968206800F03D
:1015F00035FB5021206806E0CA684968206800F081
:101600003EFB6021206800F021FBCEE7CA684968F4
:10161000206800F023FB40212068F4E7226801469F
:101620001046F0E770472DE9F04104460068C668AF
:1016300005694FF00007A90713D5B10711D5F91EA9
:10164000016101202077206880698007204602D050
:10165000FFF7E8FF04E000F07EF8204600F07CF899
:101660002777680716D5700714D521686FF0040036
:101670000861022020772068806910F4407F2046AE
:1016800002D0FFF7CFFF04E000F065F8204600F03D
:1016900063F82777280715D5300713D521686FF031
:1016A00008000861042020772068C0698007204670
:1016B00002D0FFF7B7FF04E000F04DF8204600F03D
:1016C0004BF82777E80616D5F00614D521686FF099
:1016D00010000861082020772068C06910F4407F5E
:1016E000204602D0FFF79EFF04E000F034F82046C9
:1016F00000F032F82777E80708D0F00706D0216815
:101700006FF001000861204600F028F8280608D58F
:10171000300606D521686FF0800008612046FFF78B
:101720003DFE680608D5700606D521686FF04000BA
:101730000861204600F030F8A8060AD5B00608D5A2
:1017400021686FF0200008612046BDE8F041FFF7F6
:1017500026BEBDE8F08170477047000070B5006894
:101760000B49884213D10B4C2068401C206005288F
:101770000DDD211D012091EC050A00F015F9A0698D
:101780000025012802D100F07FF9A561256070BD18
:1017900000000140000000207047FEE70F4810B530
:1017A0000D4901600321416000214FF41022816046
:1017B000C0E903124FF4001242610176417681764E
:1017C000C17601774177FFF7A4F8002803D0BDE880
:1017D0001040FEF72CBE10BD0064004060000020E9
:1017E0000D4808B5016841F001010160016801F090
:1017F00001010091016841F008010160016801F0F8
:1018000008010091016841F080010160006800F06A
:101810008000009008BD00003038024010B586B04E
:1018200000241748009401940294039404941349EB
:1018300005940160A721C0E9011440F2E731C0E935
:10184000031444618461FFF7F3FD08B1FEF7EFFD77
:101850004FF48050009069460948FFF775FE08B1C3
:10186000FEF7E5FD049404A905480594FFF798FDEB
:10187000002801D0FEF7DBFD06B010BD00000140DE
:1018800088000020FEE71CB500216A46FF23535460
:10189000491C0729FBDBFC218DF80710114600F0DD
:1018A00055F81CBD70B505462DED028B0C46B1F800
:1018B000010040BA00EE100AC87801012079B8EEA4
:1018C000400A41EA101100EE901A617900F00F0011
:1018D00041EA0020F8EE608ABCEEC00A00EE900AF1
:1018E000102110EE100AB8EE608AF2EE090A80B2FA
:1018F000BAEE090A00F044FA85ED010ABCEEE80AE6
:101900000C21F2EE040A10EE100ABAEE040A0C35AD
:1019100080B200F035FA05ED010ABCEEC80A0C21D0
:10192000DFED080A10EE100A9FED070A80B200F002
:1019300027FA85ED000AA0796877E0792877BDEC71
:10194000028B70BD00004842000048C200B587B05D
:101950000A4600900020029003900820049006ABF5
:1019600069460248FEF777FD07B000BD6000002021
:1019700001709FED0C0A027480ED050A80ED060AE5
:1019800080ED070A80ED090A80ED080A80ED010A62
:1019900080ED030A80ED020A002180F8291080F80A
:1019A00028107047000000002DE9F04180462DED21
:1019B000048B82B00020F0EE418AB0EE608A009085
:1019C0000190B0EE429AF0EE619A1020B2EE091A40
:1019D000FAEE090A00F092F907460C20B2EE041A5A
:1019E000FAEE040AB0EE480A00F088F99FED228A68
:1019F00006460C20B0EE481ADFED200AB0EE680A69
:101A000000F07CF9DFED1F8A05460C209FED1C1AC3
:101A1000F0EE680AB0EE690A00F070F904460C2096
:101A2000B0EE481AF0EE680AB0EE490A00F066F926
:101A3000390A8DF800108DF8017031098DF8021007
:101A4000C4F3032141EA06118DF803108DF8044018
:101A500001098DF80510C5F3032141EA00108DF846
:101A600006008DF8075069464046FFF76FFF02B049
:101A7000BDEC048BBDE8F08100004842000048C284
:101A800000007A43000000001CB500216A46FD23D7
:101A90005354491C0729FBDBFE218DF80710114622
:101AA000FFF754FF1CBDFEE770477047FFF746B9CC
:101AB00030B593B030216846FEF74DFC14210CA8D8
:101AC000FEF749FC1D480025016841F08051016086
:101AD000006800F0805011901948016841F480417D
:101AE00001600068022400F48040119001200390FE
:101AF00010200490009406940820CDE90750A820F7
:101B0000CDE9090404200B906846FFF77DFA08B17F
:101B100072B6FEE70CA90F2081E831004FF4A05007
:101B20000F904FF48050109005210CA8FFF7A0F9FA
:101B3000002801D072B6FEE713B030BD4038024035
:101B4000007000400248016841F470010160704774
:101B500088ED00E00148FFF766BD00008800002026
:101B6000F0B50268294C2A4D2A4E2B4F2B4B4FF0D3
:101B7000804CA04209D0604507D0A84205D0B042B1
:101B800003D0B84201D0984204D122F0700E4A68C6
:101B900042EA0E02A0421BD0604519D0A84217D0DD
:101BA000B04215D0B84213D0984211D01C4DA84273
:101BB0000ED01C4DA8420BD01B4DA84208D01B4D87
:101BC000A84205D01A4DA84202D01A4DA84203D10E
:101BD00022F44075CA682A434D6922F080022A43E4
:101BE00002608A68C2620A688262A04201D098429A
:101BF00001D109690163012141610169C90703D06C
:101C0000016921F001010161F0BD00000000014007
:101C10000004004000080040000C004000040140A7
:101C200000400140004401400048014000180040CD
:101C3000001C00400020004010B5846842EA0322E6
:101C400024F47F440A432243826010BD826822F05C
:101C500070020A4342F007018160704710B5036AC1
:101C6000046A24F001040462846924F0F00444EA64
:101C7000021423F00A020A438461026210BD10B507
:101C8000036A046A24F010040462846923F0A00348
:101C900024F4704444EA023243EA01118261016291
:101CA00010BDFEE70907090E002804DB00F1E02063
:101CB00080F80014704700F00F0000F1E02080F879
:101CC000141D704700B58BB000200121CDE906013D
:101CD000089100900190029003900590049069464D
:101CE0000548FEF717FC0448FEF7F6FE02210248FD
:101CF000FEF79FFB0BB000BD6000002071EE601A84
:101D0000B4EEC10AF1EE10FA02DDB0EE410A08E0CD
:101D1000B0EE601AB4EEC10AF1EE10FA01D2B0EEE4
:101D2000600A0121814070EE600A491E00EE101A1F
:101D3000B8EEC00A20EE800AC0EE210ABDEEE00A2D
:101D400010EE100A70470000FFF700F8FFF7B0FE32
:101D5000FFF746FDFFF722FDFFF760FDFFF7B2FF3B
:101D60000548FFF7B1FB022201210448FFF700FEFE
:101D70000120FFF788FDFEE78800002034000020E6
:101D800001EE100A70EEC00A0122B8EE411A8A4034
:101D9000521E20EE811A00EE902AF8EE601AC1EE73
:101DA000210A30EE800A70474FF04070E1EE100AD1
:101DB0007047000000000000000001020304060755
:101DC00008090000E41D00080000002034000000A5
:101DD000C4010008181E000834000020FC060000A2
:101DE000E00100080000000000000000000000000A
:101DF00000000000000020410000803F00000000C3
:101E000000000000000000000100000010000000C1
:081E1000000000000024F400B2
:040000050800018965
:00000001FF
